:020000040000FA
:10000000C80F0010B9010000C1010000C3010000C9
:1000100000000000000000000000000000000000E0
:10002000000000000000000000000000C50100000A
:100030000000000000000000C70100008D04000067
:10004000CB010000CB010000CB010000CB01000080
:10005000CB010000CB010000CB010000CB01000070
:10006000CB010000CB010000CB010000CB01000060
:10007000CB010000CB010000CB010000CB01000050
:10008000CB010000CB010000B1050000CB01000056
:10009000CB010000C1050000CB010000CB01000036
:1000A000CB010000CB010000CB010000CB01000020
:1000B000CB010000CB010000CB010000CB01000010
:1000C00000F002F800F04CF812A030C808382418EC
:1000D0002D18AC4201D100F043F80FCCA246AB463C
:1000E0000CA730CF2D1B083F3F197C427F1E544484
:1000F0002D090426F441641EAC4201D300F030F80F
:100100000126334200D0FB1A3343984754465D46DC
:10011000DFE70000F8190000181A0000103A02D3B7
:1001200078C878C1FAD8520701D330C830C101D598
:1001300004680C6070470000704700000023002432
:1001400000250026103A01D378C1FBD8520700D30E
:1001500030C100D50B6070471FB51FBD10B510BD75
:1001600000F0A8F81146FFF7F7FF00F0BFFD00F020
:100170007DF903B4FFF7F2FF03BC00F07FF9000044
:1001800070B505460C46164602E00FCC0FC5103E72
:10019000102EFAD2082E02D303CC03C5083E042E3B
:1001A00007D301CC01C5361F03E021782970641CF8
:1001B0006D1C761EF9D270BD07488047074800477E
:1001C000FEE7FEE7FEE7FEE7FEE7FEE70448054937
:1001D000034A054B7047000069050000C10000009C
:1001E000C80D0010C80F0010C80D0010F8B5042A83
:1001F0002CD3830712D00B78491C0370401C521E6D
:1002000083070BD00B78491C0370401C521E8307D8
:1002100004D00B78491C0370401C521E8B079B0FA7
:1002200005D0C91ADF002023DE1B08C90AE0FFF74A
:10023000A7FFF8BD1D4608C9FD401C46B4402C432D
:1002400010C0121F042AF5D2F308C91A521EF0D4A6
:100250000B78491C0370401C521EEAD40B78491CD1
:100260000370401C012AE4D409780170F8BD01E054
:1002700004C0091F0429FBD28B0701D50280801C12
:10028000C90700D00270704700290BD0C30702D005
:100290000270401C491E022904D3830702D5028044
:1002A000801C891EE3E70022EEE70022DFE77047AB
:1002B00070477047754600F01DF8AE460500694668
:1002C0005346C008C000854618B020B5FFF77EFF32
:1002D00060BCB64600260027C0C5C0C5C0C5C0C5A5
:1002E000C0C5C0C5C0C5C0C5403D490849008D4610
:1002F000704700000048704718000010FFFFFFFF24
:10030000002203098B422CD3030A8B4211D3002312
:100310009C464EE003460B433CD4002243088B42EC
:1003200031D303098B421CD3030A8B4201D3944679
:100330003FE0C3098B4201D3CB01C01A524183096C
:100340008B4201D38B01C01A524143098B4201D326
:100350004B01C01A524103098B4201D30B01C01A51
:100360005241C3088B4201D3CB00C01A52418308CB
:100370008B4201D38B00C01A524143088B4201D3F8
:100380004B00C01A5241411A00D201465241104658
:1003900070475DE0CA0F00D04942031000D34042CD
:1003A00053409C46002203098B422DD3030A8B4203
:1003B00012D38901FC2212BA030A8B420CD38901A1
:1003C00092118B4208D3890192118B4204D3890187
:1003D0003AD0921100E08909C3098B4201D3CB01C5
:1003E000C01A524183098B4201D38B01C01A52417A
:1003F00043098B4201D34B01C01A524103098B427E
:1004000001D30B01C01A5241C3088B4201D3CB0068
:10041000C01A524183088B4201D38B00C01A52414B
:10042000D9D243088B4201D34B00C01A5241411A22
:1004300000D201465241104663465B1001D3404250
:10044000002B00D54942704763465B1000D3404201
:1004500001B50549002802DC491C084000E00846B7
:10046000C046C04602BD00BFFFFFFF7F10B5044677
:10047000C046C0462046FFF77CFE10BD014918204B
:10048000ABBEFEE726000200704700000648016888
:10049000C9087D2904D3054901220A7000210160A1
:1004A000574800687047C046B0060010B4060010F8
:1004B00070B51B4CE069C0083C21014019A04258AE
:1004C000E169A56E03231D402648C0467D442D7971
:1004D0006D00AF441D01050CA16B89070CD417E01A
:1004E000C806800E811C1046FFF70AFF10E0A16BC2
:1004F00019408A1E022A01D2002009E00129216840
:10050000C905890F04D121681F220A4042431018EF
:100510005A4D2860216FFFF7F3FE286070BDC0467A
:10052000088004400000000020A1070000350C00F6
:10053000E0C81000C05C1500006A180040771B007E
:1005400080841E00C0912100009F240040AC270041
:10055000E032290020402C00604D2F0000D43000F4
:1005600040E13300001BB700B0B50F4800228263A2
:100570000121C163C263C163C36BDB07FCD02323CA
:1005800003600A4B1C688025AC431C604368DB0792
:10059000FCD003238366C166C266C166C26ED20701
:1005A000FCD00167B0BDC0460880044038820440DA
:1005B0000248016801220A4302607047004001407E
:1005C0003E488168CA0715D10268480713D50A4812
:1005D00002700A490978002907D10078B8490A68E9
:1005E000B84B98540868401C0860064800680649E3
:1005F0000860704700687047DD030010DC030010DE
:10060000E804001008400140EC040010F0B581B08F
:100610000724E143174802680A4002600268012586
:100620002A43026042680A404260416829434160AF
:100630002803114E316801433160104800681F4F94
:100640008321F9600E4909880901FFF759FE010A63
:100650007960C0B238600320F860BC60B5610948B9
:10066000016820221143016007480168914301603D
:1006700001B0F0BDA44004408080044000000010A0
:100680001600001000800150FC3F01500448016832
:100690000122114301605005024908607047C046BD
:1006A0000480004000E100E00449086048698006D9
:1006B000FCD548694006F9D57047C0460080004027
:1006C000F0B585B01D46149F0097129C234600F09C
:1006D0004DF902AE3080000CB07000970A990B9A69
:1006E0002846234600F042F9F070010A3171000CEF
:1006F000707100970CAA07CA234600F037F9F08002
:10070000000C307200970FAA07CA234600F02EF99A
:100710007072010AB172000CF07202AA07CA159B2E
:100720000093139B00F022F905B0F0BDF0B581B045
:10073000EA4C25782D480088012814D1E020215C5E
:100740002B48002900D0817E7022A25C002A00D0B4
:10075000027E002D00D0857D15231B01E35C002B5C
:1007600009D0007F08E0E020215C7020225C152089
:100770000001205C00E000200095E4232646E458B8
:100780006442F45055239B00F4586442F450C3B2C1
:100790001848048818466043D6B27219CFB2D119EE
:1007A000CD182946FFF7ACFD15210901CB4A50545D
:1007B000674338462946FFF7A3FDE021C74F785429
:1007C000664330462946FFF79BFD702178547868D0
:1007D00040427860786F40427867009860432946CD
:1007E000FFF78EFD387001B0F0BDC0461802001052
:1007F0001C0200100C00001070B505461248046879
:10080000E8B24043000A2146FFF784FD0646280A65
:10081000C0B2404380080D494143480D2146FFF7CF
:1008200079FD3106090C0006000A4618280CC0B2F2
:100830004043C00806494143C80C2146FFF76AFD02
:10084000C0B2301870BDC046040000103B6D0000FF
:100850004F1B0000F0B582B019480268F8495218E1
:10086000921E1278019202685218521E127800925B
:1008700000689B4C032817DB831E0022124D104694
:1008800016460F5C674014463804400CFF0700D042
:1008900068400746601C072C0446F5D3761CF0B26E
:1008A00083423C46EDDC00E02746019800020099B7
:1008B000401839BA090C411A4842484102B0F0BD0B
:1008C000E8040010E803001001A0FFFFF0B5254D7B
:1008D00081422F4600DC244F0C1A059E7443E41914
:1008E000E7173F0CE419241427188A42284600DC35
:1008F0001D48541A74432018C417240C00190014FE
:100900004018B842294600DC1749C41B74436118DB
:10091000CC17240C0919091493422C4600DC124C04
:10092000C9199B1A73431B19DC17240C1B191B14C0
:100930009A1882422B4600DC0B4B121A7243D218D3
:10094000D3171B0CD21812141018884200DC064D65
:10095000401A46437019C217120C80180014401830
:10096000F0BDC046FF7F00000180FFFFF0B583B0FF
:1009700015460F4606460898009099B21A0CFF20BB
:100980000302FF330020FFF7A1FF84B20094F0B20E
:10099000310E3A0CD2B22B0ADBB2FFF797FF02906E
:1009A0000094F9B23A0E300AC0B22B0CDBB2FFF75A
:1009B0008DFF00940299C9B2000280B24418EAB2D5
:1009C0002B0E300CC0B2390AC9B2FFF77FFF000608
:1009D000000A201803B0F0BDF4214048144A4250E8
:1009E000E42200218150E022062383548822114B07
:1009F00083508422104B83507022082383542D226D
:100A0000D2000E4B8350592292000D4B8350552239
:100A1000920001235B02835015221201102383549C
:100A20004167084A426141600C2101707047C0462D
:100A300001E3EDEE03E3EDEE0329B3D20A48585883
:100A400002F9651B0129B3D264214143E7480268DA
:100A500003689B1A8B4201D200BFF9E77047C0467A
:100A600070B500F0BFFA24201C4E0121315404203F
:100A7000706031709625002428462146224600F0F9
:100A800011FFF084000C3146263188702046214643
:100A9000224600F007FF2921705431462931020A0D
:100AA0004A70000C887020462146224600F0FAFE6B
:100AB000B08531462C31000C8870284621462246EC
:100AC00000F0F0FE2F217054B48605497186010AAA
:100AD0002F367170000CB07070BDC046F00400106D
:100AE000FFFF0000F0B581B0404800210160774869
:100AF00003683F4A134003604B239B0000BF5B1E0B
:100B0000FCD10125AB02574C2688002E68D06D051C
:100B10008F00754CE7590097364C2560BFF34F8F17
:100B2000BFF36F8F1827009E04681C43046000BF4A
:100B300000BF00BF00BF00BF00BF00BF00BF00BFBD
:100B400034021DD404681440046000BF00BF00BF1D
:100B500000BF00BF00BF00BF00BF00BF00BF00BF9D
:100B600000BF00BF00BF00BF00BF00BF00BF00BF8D
:100B700000BF00BF00BF00BF00BF00BF00BF1AE042
:100B800000BF00BF00BF00BF00BF00BF00BF00BF6D
:100B900000BF00BF00BF00BF00BF00BF00BF00BF5D
:100BA00000BF00BF00BF00BF00BF00BF00BF00BF4D
:100BB00004681440046000BF00BF00BF00BF00BF56
:100BC00000BF00BF00BF00BF009C640000947F1EF8
:100BD000A9D1094C2560491C224C2488A14297D3F5
:100BE00001681943016001B0F0BDC0461002001059
:100BF000FFFBFFFF80E100E000E100E010B50F48DF
:100C00000078E94C2178814216D1FFF723FE0028B5
:100C100012D0607810280BD0062804D003280BD1FE
:100C200000F05AF910BD00F00FFF00F00BF910BDF5
:100C300000F074FE00F0CCFE10BDC04614000010A1
:100C4000E803001080B5074800888200064826495E
:100C5000FFF796FA0548012101700548002101803F
:100C600080BDC0460C0000104C020010C20C0010E9
:100C7000C00C00105C480168124A0A43026001205F
:100C80008102114802680A430260104A13688B43CC
:100C900013600F490A6880231A430A600D490A68E5
:100CA0009A430A600421CA430368134003604368FF
:100CB00013404360C2680A43C26002690A4302618A
:100CC0007047C0464000010000800250FC3F0250C7
:100CD00000800050FC3F005064200349002204C102
:100CE000401EFBD17047C04680000010FFF73CFC5F
:100CF000FFF7DEFBFFF7BEFF3A4800240470FFF762
:100D000085FCFFF7C3FC0F2041010A46203236481C
:100D1000036813430360B14D6960E1432961E968E9
:100D200002220A43EA60291F0A6801231A430A6063
:100D3000016880220A4302602D4803600A21C160D5
:100D4000816803220A43826028682A49086028686B
:100D5000A349086028682849086000F091F8FFF767
:100D6000BBFFFFF7BFFE204600F0C0FB594E584FB7
:100D700000F072FD9748008801280CD1984800685F
:100D80002968081A232806D300209249088092482F
:100D9000008800F037F83088002804D08A48C08BDB
:100DA0001649086004E03888002805D01348006818
:100DB00000F09CFB3C8034800E4800682968081ACB
:100DC0006428D5D328680B4908600D480068401C8A
:100DD0000A28214600D001460948016000F03EF98A
:100DE000C6E7C046DC030010808004400840014094
:100DF0000CC00040BC0C0010EC04001014020010E9
:100E0000B0060010F0B581B004460D4D28682026CC
:100E1000304328600120FFF717FE002C07D0684FF1
:100E20003878FFF741FC641E7F1C002CF8D10120AC
:100E3000FFF70AFE2868B043286001B0F0BDC04645
:100E4000FC3F0150B0B50D48016801290ADB0022C2
:100E500055495B4B14468D5C9D54641CA2B20568D9
:100E60009542F8DC5B4901220A8000685A490880F3
:100E70005A4800685A490860B0BDC046E8040010EE
:100E800010B5514C201D2421FFF70FFA3C20A08102
:100E90000D48A060812040000A30E0800B482060AF
:100EA0000B48002101800B4801806B480178E182EA
:100EB0007021415C2183E021415C6183152109019E
:100EC000405CA08310BDC0460100050042500201F5
:100ED0001802001048020010F0B581B0324988783D
:100EE000324B5870C878187018880A795A70497946
:100EF00019703049884201D92D4940182E4908807F
:100F00001C882E490C80002C4BD080B2132848D866
:100F10002118142945D82A4F03227A7061000091C4
:100F2000B970284909783970400027490D1891B2E5
:100F30002888060A7E5479184870641EAD1C921CDD
:100F4000002CF4D118800098C01C204B0021204CAC
:100F500085B208460E461A4F3F5C5F400B46380488
:100F6000400CFF0700D060400746581C072B034683
:100F7000F5D3761CF0B285423B46ECD890B239BA34
:100F80000A0E0F4B1A541818090C41701148012110
:100F900001800098401D10490880104800681049E1
:100FA000086001B0F0BDC046E8030010B80C0010A6
:100FB000C06300003F9C0000DE030010E00300104F
:100FC000C30C0010140000101C020010FFFF0000F2
:100FD00001A0FFFF4602001044020010084001403B
:100FE000E4030010FC221C4800218154F8228154A3
:100FF000F4228154E4228150E022815490228154D1
:101000008C228154882281548422815470228154FC
:10101000202281541722120181545B2292008154B4
:101020002D22D200815459229200815455229200DF
:10103000815015221201815401221202815441670C
:10104000017701760175017024300422017070303F
:10105000521EFBD17047C046F0040010F0B5BBB083
:10106000F64C2246FC32FF2005060027FD4E3A953D
:1010700070200F907843315C002900D1A8E131182D
:1010800024201E91085C00280D920E9700D116E1D5
:10109000012800D1CAE0022800D041E11E98024692
:1010A0006A321D92024666321C92024662321B92DE
:1010B00002465E321A9202465A321992024656325D
:1010C000189202465232179202464E321692024649
:1010D0004A32159202464632149202464232139226
:1010E00002463E32129202463A3211923630109047
:1010F000002223462E9E389313980188379140880A
:101100003690129801883591408834901198018862
:1011100033914088319010980188309140882F9009
:10112000149801882E9140882D90159801882C9153
:1011300040882B90169801882A914088299017980A
:101140000188289140882790189801882691408826
:101150002590199801882491408823901A98018835
:101160002291408821901B980188209140881F90EF
:101170001C98018845881D9B18885F8832929306C9
:101180001B0C3F0438182D046918089109900A9324
:10119000CD480B901F980004209940180790219883
:1011A00000042299401806902398000424994018BE
:1011B000059025980004269940180490279800046B
:1011C000289940180390299800042A994018029001
:1011D0002B9800042C99401801902D9800042E990A
:1011E000401800902F980004309940183199090454
:1011F000339A8918349A1204359BD218369B1B04F3
:10120000379D5B19FFF75CFAAE4908403A990E40EA
:1012100006433046FFF7F0FA389B01C33298401C72
:101220000246402800D066E72E9679E01E980246D6
:101230003232329202462E32319202462A323092B5
:1012400026302F90402200272D9426460C9D389260
:101250003F213846FFF754F880B234903298018825
:101260003791408833903198018836914088359085
:101270003098038842882F9801884088349C0094D5
:10128000000440181104C918359A1204369BD2186C
:10129000339B1B04379C1B19FFF768FB89490840E7
:1012A0003A990D4005432846FFF7A6FA389A01C639
:1012B00086483F18521ECAD10C952D9C30E01E99CD
:1012C000143100252F4637953891A8000E5C002E6A
:1012D00020D0081841787E4A117081785170C37807
:1012E00093703A99399808401B041188C91808432B
:1012F0003990FFF781FA3F2F0BDCB90000226050D4
:10130000531CB34204D2BA18091D3F2A1A46F6DB11
:10131000FF1838996D1C042DD7D13F2F379DD4DD90
:101320001E984768012F22DB0320C0010E99484315
:10133000634908183790FC3038900026A059A51949
:101340006968814205D01E9A93683A4600F0AFFA68
:101350002860361DFC2EF1D11E98836837980168ED
:10136000389D28683A4600F0A2FA28602DE0002F48
:101370002BD50320C0010E994843514908183790D6
:10138000FC30389040260D9D3046761E3E2E0AD801
:1013900029686868814215D01E9A93683A4600F021
:1013A00086FA68600EE040280CD1389801683798BA
:1013B0000068884206D01E9A93683A4600F077FA91
:1013C000389908602D1F012EDED8DC4E0D9A0E9F35
:1013D0000320C301D218E4187F1C042F00D047E675
:1013E00000243A940F9D6543705D7519EF680028DD
:1013F0001BD039953A990A1837928A0035498A18CC
:1014000038973E2F01DC7E1C00E00126194661431F
:101410002B4D6918BF00C95902C2401E3746F0D192
:1014200037983A90C54E399D389FA868012807DB48
:101430000121294F3980401EA86018E0B80600102D
:101440003A460020244908806E68F11737464F401D
:10145000791AA960012E07DB3E2AFE4E00DC501CE3
:10146000E86004E0F0040010002EFA4E03D4641C7F
:10147000042CB7D105E0022A01DB501EF0E73F2023
:10148000EEE716490878012816D115480088154A54
:101490001388834209D2C41A9E00134DAD190D4F13
:1014A000BE1980CD80C6641EFBD15B1C13809AB22E
:1014B000824201D300200870FFF714FB3BB0F0BD5F
:1014C000B8060010FFFFFF00FF7F0000FFFF0000D5
:1014D0007C0000108000001078000010C20C00108A
:1014E0000C000010C00C00104C020010B0B5914C64
:1014F000044091480460FFF775FD6F2C0FDC312C20
:1015000020DD412C4FDC322C00D1E8E0402C00D112
:10151000CBE0412C00D0EEE0CE489F49E4E0902C97
:1015200031DDBF2C4EDC912C36D0A02C00D1C3E095
:10153000B02C00D0DFE0C7488449854A4261816110
:101540004021D5E01F2C59DD202C00D18EE0302C1D
:101550006CD0312C00D0CEE08C21BE48904A425055
:101560008821904A425084218F4A4250702108229B
:1015700042548E494161002141600C2101709F213C
:10158000C943923138E0802C3FDD812C71D0822C10
:1015900061D0902C00D0AEE0AE486F496F4A4261F6
:1015A00081616F49A4E0422C00D19BE0502C00D116
:1015B00087E0602C00D09EE0A6487349734A4261E0
:1015C00081617CE0C02C00D19FE0D02C7CD0D12C5C
:1015D00000D090E088219F48694A42508421694A9E
:1015E000425070211B2242546149416100214160F7
:1015F0003F2101709F21C94341677CE0002C48D006
:10160000102C78D193486E4958E0702C44D0802C2F
:1016100071D184208F49564A0A50702008220A54FA
:1016200000204867554A4A6148602FE08C2189486C
:101630005F4A425088215F4A425084215E4A4250AC
:101640007021082242540E2141675C4941613221D8
:1016500041600C214EE07F484249434A434B43617D
:101660008161C26101620121017035E000F0AEF8D4
:1016700041E0842077493E4A0A50702000220A54F3
:101680004A673C483C4B4B6188614A600C200870BB
:1016900031E070484B4911E06E483D49314A4261A2
:1016A000816180214160022124E06A483B49394A36
:1016B000426181613C211BE066482649416100216D
:1016C00016E0FFF7CDF916E062482F492F4A426134
:1016D0008161102101700121890241600BE0FFF757
:1016E0007BF908E05B4829492A4A42618161462129
:1016F000416001210170FFF719F8334D28688442D9
:1017000002D0FFF79FFA2C60B0BDF82151480C4A77
:101710004250E42100224250E0210123435484211D
:10172000084D45507021435442670749416142606A
:101730000370E0E7FF0F000010000010F00400103D
:1017400080303C4010EED2A50100B3730F485858CA
:1017500001E3EDEE0148585820E3EDEE20FBECD418
:1017600000FEFFFF04F9651B04FFD60004303C4077
:1017700001303C400600B3730200B37306FFD6008D
:101780000E48585802F9651B08303C4008F9651BA3
:101790000C781E002000B37308FFD6000800E8781C
:1017A00050303C4002EA580602FF7B000129B3D2C8
:1017B0000264DCFA0229B3D22E303C400C29B3D2A9
:1017C00001EED2A501F9651B08000010F0B583B049
:1017D000FFF708FC2420CC4E012131540A20706010
:1017E0003170EE200290D2210191A522009200F0EA
:1017F00059F8F084000C31462631887030273C249B
:101800004025384621462A4600F04CF829217054DC
:10181000010A324629325170000C90703846214638
:101820002A4600F03FF8B085000C31462C31887014
:1018300002980199009A00F035F82F2170547B49E5
:10184000B18600217186010A2F367170000CB070CC
:1018500003B0F0BDF0040010B0B50F4C20680128B3
:101860000BDB0E48006876490968081AFF21F6313B
:10187000884202D30A4801210170094D28780128C5
:1018800009D1FFF7BBF9012001029548FEF70BFDD6
:10189000002020602870B0BDE8040010EC040010A7
:1018A000DC03001009021204511808187047F0B543
:1018B00085B00746DC1763401C1BD3175A40D21A69
:1018C0000092161B01940A0C0D460491D2B2724389
:1018D0000396010CC9B261435018009C2146FEF7E3
:1018E00019FD0290280AC0B27043390AC9B2019E9C
:1018F000714340182146FEF70DFD029909040502C7
:101900000D430498C0B203994843F9B2714340189B
:101910002146FEF7FFFC284305B0F0BDF0B582B0CC
:101920006F4882786F494A70C2780A700A880379D2
:101930004B7043790B706D4B9A4201D96A4BD218A8
:101940006B4B1A800C88214B1C80002C3CD096B22B
:10195000132E39D8A219142A36D8837965009D42EE
:1019600032D100927300634AD7180F3E00250195CB
:10197000ADB22A18D3794B70127A0A700A883A806D
:10198000002E01D101220192641EBF1C761CAD1CE9
:10199000002CEDD1009A112A564B04D3588C0A28FA
:1019A00001D856490860122A06D3988C0146153989
:1019B000622901D8504908805249012008800199C4
:1019C000090601D04E49088002B0F0BDE0030010C6
:1019D00070B5164C00204249154A0346CD5C65405F
:1019E00004462E04760CED0700D056403546661CA2
:1019F000072C3446F5D35B1C062B2C46EED10D4C40
:101A0000374906222046FEF7F1FB28BA010CE171A6
:101A1000000EA071084808210180084801210180BA
:101A2000074800680749086070BDC046FFFF000016
:101A300001A0FFFFC30C001044020010460200107A
:101A400008400140E403001025498A782548427087
:101A5000CA7802700288254B9A4201D9224BD218CB
:101A6000234B1A8092B2132A00D970470B79437026
:101A700049790170510003881E4843520B3A072AE6
:101A8000F3D8C0467A441279520097440411181BC7
:101A900023030B14E9E71B4901220A80807D1A49C0
:101AA00008707047408C0A28DFD8144908607047D6
:101AB000007E702109E0808C0F4908807047807E8D
:101AC000E02102E015210901007F0F4A50540D4822
:101AD000012103E00A48012101800A480180704782
:101AE000E8030010B80C0010C06300003F9C000029
:101AF000DE0300101C0200100C0000100400001097
:101B00004802001018020010F0040010301B000002
:101B100000000010180000001C010000481B00001D
:101B200018000010B00F00003C0100000000000091
:101B3000006CDC0201000000FFFFFFFF4600000018
:081B4000FFFFFFFF3C000096CF
:04000005000000C136
:00000001FF
